:1020000000800020495600005B210000572100009D
:1020100000000000000000000000000000000000C0
:102020000000000000000000000000005F21000030
:102030000000000000000000632100009D56000029
:10204000672100006B2100006F2100007321000058
:10205000772100007B210000C151000035560000AF
:102060007F21000083210000872100008B210000D8
:102070008F210000A555000093210000972100004A
:102080009B2100009F210000A3210000A721000048
:10209000AB2100003156000031560000AF21000096
:1020A000B3210000B7210000BB210000BF210000C8
:1020B0000000000010B5064C2378002B07D1054B1B
:1020C000002B02D0044800E000BF0123237010BDA4
:1020D0001001002000000000C09D0000044B10B55E
:1020E000002B03D00349044800E000BF10BDC046E8
:1020F0000000000014010020C09D000070B5D3183E
:1021000015780132802441600326013EFDD12C4226
:1021100000D101600626013EFDD10160641004D0AB
:10212000E4B20226013EFDD1EDE79A4200D2E7E794
:1021300070BD10B50021182003F096FC002111207D
:1021400003F092FC0021102003F08EFC00210F20F0
:1021500003F08AFC10BD03BE704703BE704703BE88
:10216000704703BE704703BE704703BE704703BE8F
:10217000704703BE704703BE704703BE704703BE7F
:10218000704703BE704703BE704703BE704703BE6F
:10219000704703BE704703BE704703BE704703BE5F
:1021A000704703BE704703BE704703BE704703BE4F
:1021B000704703BE704703BE704703BE704703BE3F
:1021C0007047000037B580250F4B01AC2D036070C0
:1021D0002170A27001209D605D6103F0A3FAEFF30E
:1021E0001083002B08D172B608482200290003335F
:1021F000FFF784FF62B637BD03232200290003489E
:10220000FFF77CFFF7E7C04600440041144400415B
:1022100037B5184C200002F007FF00236A46938070
:10222000019A2000144902F02FFE144D144C28008E
:1022300003F080FE134B0321236080239B02636025
:10224000232003F085FC0321172003F081FC0221E9
:10225000072003F07DFC0121052003F005FC01218E
:10226000052003F031FC280003F05AFE8F2323756C
:1022700037BDC0463C01002000093D00B0080020E9
:10228000001000420C00300010B50100014802F0BF
:1022900017FE10BD3C01002010B50121242003F0E1
:1022A000E3FB0121242003F00FFC0021162003F0A2
:1022B000DBFB002211001000FFF784FF03F0FCF9A4
:1022C0001A4B1860FFF7A4FF194803F0C5FD194821
:1022D00003F0C2FD184803F0BFFD184803F0BCFD31
:1022E000174803F0B9FD0121042003F0BDFB0021D4
:1022F000042003F0E9FB8222124B52009A605A78C4
:1023000052B2002AFBDB104A5A605A7852B2002AB5
:10231000FBDB0721222003F01BFCFFF70AFF9621BD
:102320000A48890103F0AEFF10BDC0468C010020B1
:10233000A8080020AC080020B4080020B80800203D
:10234000BC080020000C004004070B00C808002057
:10235000052010B5002103F0B7FB4020FFF794FFE4
:10236000030609D50020FFF78FFF04000121052097
:1023700003F0AAFB200010BD01246442F6E7000030
:1023800070B503F099F9FA2605007600FFF7E0FF33
:102390000400431C02D0C4B2200070BD03F08CF9CD
:1023A000401BB042F2D90249024803F061FCF3E756
:1023B000408D0000C8080020F8B5041E01D000239D
:1023C0000360FFF7DDFF071E06DA002C02D00123B1
:1023D0005B4223603800F8BDFFF7D2FF061E06DA25
:1023E000002C02D001235B4223603000F3E7FFF7AB
:1023F000C7FF051E06DA002C02D001235B422360D2
:102400002800E8E7FFF7BCFF031E06DA002C02D025
:102410000122524222601800DDE7380230430002F8
:10242000034A28430002184313681B181360D2E7BD
:102430009C010020002337B501A80193FFF7BCFFE2
:10244000019B0500114C002B04DA2000104903F019
:10245000FDFB37BD0F49200003F0F8FB10222900D7
:10246000200003F064FC0C49200003F0EFFB0B4D4F
:102470000A222000296803F06AFC2B68002BE8D0B0
:102480002000074903F0F4FBE3E7C046C80800203A
:102490006A8D0000868D00008F8D00009C01002059
:1024A0009C8D000070B500210500052003F00CFB99
:1024B0008020FFF7E9FE0024430603D52800FFF73C
:1024C000E3FE01340121052003F0FEFA601E70BD19
:1024D000F8B50500FFF73CFF204C0600431C0CD06C
:1024E0001F49200003F0B2FBF1B21022200003F0DC
:1024F0002AFC20001B4903F0A9FB1B49200003F024
:10250000A5FB10222900200003F01DFC03F0D4F8E5
:10251000402706000520002103F0D6FA8020FFF7AF
:10252000B3FE384211D103F0C7F8FA23801B5B00D9
:102530009842EFD90121052003F0C6FA20000B498B
:1025400003F096FB01204042F8BD2800FFF79CFEF7
:102550000520012103F0B8FA0020F5E7C8080020A3
:10256000AA8D000050910000AC8D0000AE8D0000DF
:1025700010B50400000EFFF7ABFF002815DB200CA0
:10258000C0B2FFF7A5FF00280FDB200AC0B2FFF79B
:102590009FFF002809DBE0B2FFF79AFF002804DB69
:1025A0000020024B1A6814191C6010BD980100200D
:1025B00010B5034B18684042FFF7DAFF10BDC04664
:1025C00098010020054B10B51870FFF781FF002817
:1025D00002DB0020024B186010BDC04689010020BC
:1025E0009801002070B5FFF7E3FF002816DB144DBB
:1025F0001449280003F02AFBFFF7C2FE00280DDB78
:10260000C4B210222100280003F09DFBFF2C06D14C
:1026100028000D4903F02CFB0120404270BD0B4BFC
:102620001B78A34205D02800094903F021FB0220B2
:10263000F3E72800074903F01BFB0020EEE7C04644
:10264000C8080020DA8D0000E58D00008901002017
:10265000F78D0000118E000010B50C4C0C492000C5
:1026600003F0F4FA0121042003F02EFA642003F0B1
:1026700059F80021042003F027FA2000054903F04F
:10268000F7FA0022044B1A7010BDC046C80800209B
:10269000178E00002C8E0000A00100201FB5032320
:1026A00002930023019323330093072203490C3B39
:1026B000034802F093FB05B000BDC046B0080020FF
:1026C0003C0100200121242010B503F0FDF90A4C43
:1026D000200003F048FD002808D0200003F0E8FDAA
:1026E000002803D1200003F06FFDF0E7200003492C
:1026F00003F0BEFA10BDC046C8080020148E0000CA
:1027000010B5054803F0D4FD0023984202D1FFF72D
:10271000D9FF0123180010BDC808002070B5FFF7CD
:102720002FFE051E06DA0F490F4803F0A1FA02201A
:10273000404214E0FFF7E4FF041E11D10A4E0B499A
:10274000300003F083FA29001022300003F0E1FA90
:102750003000074903F07AFA902DE0D1200070BDD7
:102760000120E5E7328E0000C8080020488E0000F6
:10277000AC8D000070B505000E200C00FFF722FFA5
:10278000002817DB0120FFF7F3FE002812DB2800EA
:10279000FFF7EEFE00280DDB2000FFF7E9FE002822
:1027A00008DBFFF71FFF002804DB0020FFF704FE13
:1027B000FFF7B4FF0120404270BD0000F7B50400F0
:1027C00016200E00FFF7FEFE002802DA012040422C
:1027D000FEBD3000FFF7CCFE0028F7DB2000FFF73E
:1027E000C7FE0028F2DBFFF7FDFE0028EEDB00202D
:1027F000FFF7E2FD00240700154D164B164928008F
:102800001C6003F023FA39001022280003F09FFA1D
:102810002800124903F02CFAA64210D001A8FFF7B5
:10282000CBFD10220100280003F091FA0198002846
:10283000CEDBFFF765FF0028C8D10134ECE708497B
:10284000280003F015FAFFF7F5FD0020C0E7C046A9
:10285000C80800209C0100204A8E0000558E000010
:10286000608E0000F0B5B34C85B0200003F020FD71
:10287000B14E05003378002855D1B04F002B1DD044
:1028800030700121242003F01FF90122AC4B3D6080
:102890001A6002F011FFAA4B38601D686A426A4153
:1028A0001A60002D3DD1162003F03AF9002834D0EB
:1028B0002A0010212800FFF785FC0AE03B68002B66
:1028C000E7D002F0F9FE3B68C01AFA235B00984299
:1028D000DFD8FFF73DFD002872DBC5B2994AFF2D16
:1028E00069D0002313609849200003F0AFF9290054
:1028F0001022200003F027FA2000944903F0A6F9E3
:10290000902D5DD1924D2B78002B03D12000914961
:1029100003F0AEF901232B7052E00A2211001000DF
:10292000C9E70022FAE7002B06D102F0C5FE8A4B68
:10293000186001233370CCE7012BCAD102F0BCFE32
:10294000854B1B68C01A0A28C3D90021242003F034
:10295000BBF8102200201100FFF734FC20007F4953
:1029600003F086F920007E4903F070F97D4B0A22BE
:102970001968200003F0DBF920007B4903F078F9A7
:102980007A49200003F062F902F096FE0A22010063
:10299000200003F0CCF97649200003F069F9022306
:1029A00000223370734B1A70FFF756FE20007249F5
:1029B00003F05EF98DE7136801331360632B92DD3A
:1029C000200003F0D0FB002810D0200003F0FCFB17
:1029D000572821DC48280BDC2A2853D043282BD049
:1029E00021284CD02000644903F042F905B0F0BD25
:1029F00049380E28F6D804F0BDFE4902F5FFF5FF70
:102A0000F5FFF7010602F5FFF5FFF5FF1401F5FFED
:102A1000F5FFF5FFF5FF4901652800D109E270389F
:102A20000728DFD804F0A6FE6600DEFF0D011C00BB
:102A3000DEFFDEFFDEFF94015049200003F018F9AD
:102A400001235B421121182210200093103302F061
:102A500021F9FFF76EFB4A49200003F009F9C1E7AD
:102A6000444D48492B7820005A4253412B7003F0C3
:102A7000FFF82B784449002BEED04449ECE7FFF7F0
:102A8000EBFDAFE7FFF7E8FD4149200003F0F0F868
:102A900001250021102208006D42FFF793FB2E0054
:102AA000FFF72EFE00281FD1200003F050FB002866
:102AB00007D0FFF74DFC002803DBC1B2200003F074
:102AC00048FB6B1C0AD1200003F04DFB35000028A9
:102AD000E6D0200003F078FB0500E1E7E8B2FFF75D
:102AE000E1FC0028EFD0DBE7102200201100FFF707
:102AF00069FB77E72749200003F0BAF80020FFF7C9
:102B0000E7FC0F26FFF7FCFD0290002800D069E7E4
:102B1000FFF71EFC002805DB0300334030423DD0A8
:102B2000082B67D0200003F01EFB0028EAD01A49CA
:102B300092E7C046C80800202C0100208C0100202C
:102B40009401002034010020A78E0000A98E00000F
:102B5000A0010020AB8E0000300100207C8E000020
:102B60008D8E000000000020958E00009A8E0000DF
:102B7000A38E000091010020148E0000BC8E000086
:102B8000C58E0000CE8E0000698E0000748E00009D
:102B9000DE8E0000F58E0000348F0000D94A1370DD
:102BA000FF2318403028BDD00FDC002816D0202885
:102BB000B8D0D54D2B78202BB4D00A2BB2D0200022
:102BC000D24903F043F8202312E08028AAD09028AD
:102BD000EFD12000CE4903F04BF8A3E7CA4D2B7884
:102BE0000A2B9FD0202B9DD0200003F039F80A2318
:102BF0002B7097E7C34FC74D3B78C0B2002B04D171
:102C0000B043287001333B708CE7297800090143F9
:102C10002000297003F01EF8BB4B2A781A70029B23
:102C2000F1E72000BC4903F023F8BC4B00201B78DF
:102C3000002B01D1E020800480218903FFF7BEFD35
:102C4000D0E6B749200003F013F8B44B10211D78EB
:102C5000C02368424541EA206D42000605405B05FD
:102C6000ED182800FFF7AAFDFFF78AFB902800D097
:102C7000B8E680235B031021E818FFF79FFDFFF7FC
:102C80007FFBA849902800D0ACE6E5E62000A649E5
:102C900002F0EEFFA14B1B785A425341EA225B42FD
:102CA00012061340C02252059B181E009F4A403650
:102CB0009B18029337000E20403FFFF783FC00284B
:102CC00000DA8FE61020FFF753FC002800DA89E6CF
:102CD0003800FFF74DFC002800DA83E68020400230
:102CE00004F079FC05008020400204F074FC2D04FF
:102CF00005438F49200002F0A9FF1022290020007F
:102D000003F015F88B49200002F0A0FF10223900D3
:102D1000200003F01CF82800FFF72AFC002802DB43
:102D20000437B742DAD1FFF75DFC002800DA59E634
:102D30000020FFF741FBFFF7F1FC002800DA51E625
:102D400080235B03F618029BB34200D14AE6B1E749
:102D50002000794902F08CFF704B80271B787F029E
:102D60005A425341EA225B4212061340C0225205E6
:102D7000944663440293202303938020C00104F00F
:102D80002AFC029B86003800F61804F024FC05009B
:102D9000380004F020FC2D0405436549200002F0B2
:102DA00055FF10222900200002F0C1FF61492000D8
:102DB00002F04CFF31001022200002F0C8FF290071
:102DC0003000FFF7D7FC002800DA0BE65B49200053
:102DD00002F04EFF01213000FFF7F0FC039B013BA6
:102DE0000393002BC9D1FDE54C4B1D78002D08D174
:102DF0002000534902F03CFF29005248FFF7BAFC7B
:102E0000F0E5514928E65149200002F031FF8020C9
:102E1000400004F0E0FB05008020400004F0DBFBF4
:102E200006008020400004F0D6FBF1B2C2B2E8B246
:102E30005DE62000464902F01BFF2220FFF7C2FB9F
:102E4000002800DACEE501204042FFF791FB002880
:102E500000DAC7E580208004FFF78AFB002800DA4B
:102E6000C0E53C48FFF784FB002800DABAE53A48A1
:102E7000FFF77EFB002800DAB4E53848FFF778FB5F
:102E8000002800DAAEE5FFF7ADFBABE5234B1D787C
:102E9000002D35D13249200002F0EAFE31492000F0
:102EA00002F0E6FE3049200002F0E2FE2F49200049
:102EB00002F0DEFE01212E48FFF780FC2D492000A4
:102EC00002F0D6FE80212C484902FFF753FC00286F
:102ED00000DA87E5802129484902FFF74BFC0028EA
:102EE00000DA7FE529002648FFF744FC002800DAD5
:102EF00078E501212048FFF761FC01211F489DE68C
:102F00002049A9E58801002090010020309D0000A3
:102F1000188F0000380100204E8F00009101002022
:102F20005F8F0000708F0000848F00004000200041
:102F3000998F0000908E0000A08F0000AF8F0000DE
:102F4000BC8F00000C056E03C78F0000E18F0000EE
:102F50000490000000200002AAAAAAAA55555555BF
:102F600056900000659000006D9000007590000084
:102F70005000350396900000600020036400200399
:102F800068002003D5900000F8B503000022383314
:102F90001A70036804000D009847002809DA256BB1
:102FA0001D2220001F4B2049A84701256D42280003
:102FB000F8BD012D04D1200000F008FB050005E05C
:102FC000022D27D0032D29D001256D42012120009B
:102FD00000F020FF2369002B0DD020009847002827
:102FE00009D0002D07DB256B3B2220000F4B0E493B
:102FF000A84701256D42200063689847061ED6DA6F
:1030000042222000276B0A4B0749B847002DCEDB30
:103010003500CCE7200001F08DF8CFE7200000F06C
:1030200009F8CBE7DF900000FF900000209100003E
:1030300053910000F0B5012185B0040000F0EAFED4
:1030400000283CDB0521200000F0E4FE002836DBF0
:1030500080235B000393002101230091019301224F
:1030600020006569023BA847011E28DB00280AD121
:10307000A36A002B01D020009847039B013B0393D8
:10308000002BE8D113E001252E000123002101933C
:103090000122200067690091023BB84700280EDB3F
:1030A000B04001360543202EEFD16B1C02D1002029
:1030B00005B0F0BDA36A002BDFD02900DBE70120BB
:1030C0004042F5E770B5020000232026D55CCC5CB9
:1030D00028002043B04306D0A54202D304D80133D0
:1030E000F4E70120404270BD0120FCE7030000200E
:1030F0001A5C002A04D0202A03D11A5C202A02D0AC
:1031000070470130F4E70130F7E7F8B505000C002F
:10311000D6B233000022C968476BB847731C6F6B87
:10312000280021690022DBB2B847B31C6F6B28006E
:1031300061690022DBB2B847F31C6F6B2800A169FC
:103140000022DBB2B847331D28006E6B0022E16914
:10315000DBB2B0470023E36023616361A361E361F5
:10316000F8BD00000722CB1713405B18DB10C05CD2
:10317000064B194004D5082301395B42194301313C
:103180000723591A0841063B184070470700008082
:10319000F0B589B0404B07920A6804000D00134057
:1031A00004D50821013B49420B43013307215B420F
:1031B0000B40D21805930023571E03930293059BDF
:1031C0009F4217DA039B002B04D0636A002B01D0C7
:1031D00020009847029B002B09D0A2222F4B2000F1
:1031E000256B2F495200A84701235B4202930298A6
:1031F00009B0F0BD059B9F4209D1220038321378F7
:1032000007998B4203D001331370012303930123E9
:10321000EE685B420493002E0FD02869002807D087
:103220003900FFF79FFF01235B420493002804D07D
:1032300039003000FFF796FF049001266B69764253
:103240000693002B0FD02B6A002B0CD0A869002806
:1032500004D03900FFF786FF002804D03900069813
:10326000FFF780FF0600E869031E05D03900FFF76D
:1032700079FF0300581E834100220093019233001E
:103280002000049A03996669B047002801DA0123F7
:103290000293013F93E7C04607000080769100004B
:1032A0008491000010B53A490400FFF70BFF012399
:1032B00000286AD020003749FFF704FF02230028C6
:1032C00063D020003449FFF7FDFE032300285CD0C3
:1032D00020003249FFF7F6FE0423002855D02000D5
:1032E0002F49FFF7EFFE052300284ED020002D497F
:1032F000FFF7E8FE0623002847D020002A49FFF701
:10330000E1FE0723002840D020002849FFF7DAFE1D
:103310000823002839D020002549FFF7D3FE0923D0
:10332000002832D020002349FFF7CCFE0A230028D2
:103330002BD020002049FFF7C5FE0B23002824D006
:1033400020001E49FFF7BEFE0C2300281DD02000E0
:103350001B49FFF7B7FE0D23002816D0200019499E
:10336000FFF7B0FE0E2300280FD020001649FFF70C
:10337000A9FE0F23002808D020001449FFF7A2FE61
:103380001023002801D001235B42180010BDC04665
:10339000A4910000AA910000AF910000B891000034
:1033A000C2910000CA910000D2910000DA910000A1
:1033B000E2910000EB910000F4910000FE9100000A
:1033C000069200000E920000169200001E9200006D
:1033D000F0B585B0019300230C0015000A21009080
:1033E0001360136222782B68303AD0B2092873D95F
:1033F0002278202A75D06A689A420DD02900019A55
:103400000098FFF782FE07212B68DA1D6B60D31747
:103410000B409B18DB10AB602378002B66D020009C
:103420006349FFF74FFE0026B04205D12000FFF7A9
:103430005DFE2E0024180C3620005E49FFF742FE88
:103440000027B84208D12000FFF750FE01232E00CC
:103450001F00241814362B6220005749FFF732FE54
:10346000002806D12000FFF741FE2E000227241875
:10347000103620005149FFF725FE002806D1200014
:10348000FFF734FE2E0003272418183620004C497D
:10349000FFF718FE002826D12000FFF727FE2E0098
:1034A000042724181C36316800290AD1009A019B90
:1034B000526BDF190292FBB2AA680098029FB847CC
:1034C00030603668002E3DD1009BE1221C6B3D49E7
:1034D0003D4B0098A04708E04B439A182A600134FE
:1034E00080E7013484E7002EDDD10024200005B000
:1034F000F0BDB1540132AB689342FADC2278282A3D
:10350000F3D1601C0700E443E21994463A781100B5
:103510004139052919D9303A092A16D962460100DC
:103520005B009A1A0293029C0B78A2420FD1292BBE
:10353000DBD16446013404192378202B00D06BE7DB
:103540000134F9E700221100D5E70137DCE7012754
:103550001C00174003970127413CE4B23A4215D1C1
:10356000192C0BD8373B1F00D40FA4186410335DFF
:103570003F011F43375501320131D4E7303B1C0076
:10358000DBB2039F092BEFD82700EDE7192C07D8F2
:10359000373BD40FA4186410375D3B433355EAE73B
:1035A000303BDFB21C000023092FF2D82300F0E7E4
:1035B000279200004C9400002B920000D193000051
:1035C000319200008491000037920000F0B5C7B03E
:1035D00024220021050010A804F0CFFA24220021A3
:1035E00019A804F0CAFA2422002122A804F0C5FA7E
:1035F000242200212BA804F0C0FA2422002134A8A0
:1036000004F0BBFA242200213DA804F0B6FA0023FE
:103610001F00039302330D930C930793049300242C
:1036200026002300039A0933934214DB3F2A10DD5E
:1036300053000393390005236F6B2800039AB847A2
:10364000071E08D12622864B280086492C6BA047EE
:1036500059E16023EDE73B19019300233A191370F8
:103660002800EB689847002805DA002C00D14CE1CF
:1036700031227D4BE8E720280DDC002ED1D1002C33
:10368000CED03B19013B1B782200202BC9D0202330
:103690000134BB54C5E7212809D12800EB689847BD
:1036A0000028E2DB1F28F8DC0928F6D0E5E72F2800
:1036B00008D1002C25D0019B013B1B782F2B20D15A
:1036C000013CEAE73B2800D15BE3282819D1002E12
:1036D0000AD1002C08D0019B013B1B78202B03D082
:1036E0002022019B01341A70013623000134F85462
:1036F000292896D1013E002E93D120223A559C1CB8
:103700008FE701006139621CC3B21929EDD8019914
:10371000203B14000B7084E738005449FFF7D2FCBB
:10372000002813D13800FFF7E1FC3C182000FFF718
:10373000B9FD07902000FFF7D9FC24182378202B2F
:1037400000D11AE3002B00D033E368E73800484982
:10375000FFF7B8FC061E54D13800FFF7C7FC3B5CEE
:103760003C18303B092B00D923E3B44632000A2031
:103770000196237819003039092925D92E2B2BD011
:1037800020229343452B11D163782B2B26D0013473
:1037900000230A202278303AD1B2092920D9624682
:1037A0009B1A00D505E30A229E421DD12378202BC7
:1037B0001FD02000FFF79AFC2B6A2418002B1AD187
:1037C000CE222C4B52003FE70199944441433039BB
:1037D0005B1801930134CCE70122FBE70234D7E701
:1037E00043430134D318D5E7019901365143019180
:1037F000DAE70134DAE728000199984700289DDAD2
:10380000DEE738001C49FFF75DFC00280BD13800CB
:10381000FFF76CFC1023391810AA2800FFF7D8FD19
:10382000041E8BD1C5E238001449FFF74BFC002879
:1038300006D13800FFF75AFC1523391819AAECE70E
:1038400038000F49FFF73EFC002805D038000D492D
:10385000FFF738FC00281BD10B4B0C4AABE2C046EB
:1038600037920000849100005192000030950000D2
:10387000739200007D920000979200009B920000DE
:103880009F920000A3920000AA920000860200000E
:103890003800AD49FFF716FC0590002800D06BE119
:1038A0003800FFF723FC01235B423C180E9306937C
:1038B000099308932378002B5FD16B4630229B1825
:1038C0002800197800F0A6FA00281CDB0E9B0133B3
:1038D00005D028009D4B9E4A9E492E6BB047099B00
:1038E000013300D01DE1069B089A1340013300D03C
:1038F0001CE16B4634229B181978280000F08AFAE4
:10390000002800DB1AE7012464422B69002B0DD04C
:1039100028009847002809D0002C05D128008E4B9C
:103920008E4A8C492C6BA04701246442280010A9C0
:103930001022FFF7EAFB280019A91522FFF7E5FB83
:10394000280022A91A22FFF7E0FB28002BA91F223A
:10395000FFF7DBFB280034A90622FFF7D6FB28007F
:103960003DA90B22FFF7D1FB0523002239002800D7
:103970006E6BB047200047B0F0BD20007849FFF7DC
:10398000A1FB00230F93984205D12000FFF7AEFB67
:10399000012324180F9320007249FFF793FB0023A3
:1039A0000193984205D12000FFF7A0FB01232418C2
:1039B00001932000FFF776FC061E09DB2000FFF7CD
:1039C00095FB019B2418002B00D09DE00C9671E71D
:1039D0002378303B092B00D9EBE1002301932378B6
:1039E0001A00303AD1B209290AD920229343452B33
:1039F00069D163782D2B48D10234213A00260AE0A0
:103A00000A2301980134584313180193E7E70A2168
:103A10004E4301349E192378303BD9B20929F6D997
:103A200072431300019E063302920B930A920A9B83
:103A3000002B2DDB0023029A9A4200DC5342029AAB
:103A4000D318002B2DD10B9B0A930A9B002B2CDB48
:103A5000029A0023053201DA0B9B5B420B9AD318C2
:103A6000002B2AD12378202B33D020003E49FFF7AA
:103A700029FB00282FD12000FFF738FB0F9B2418CB
:103A8000002B43D1019B069314E701220134B5E7D3
:103A900030000A2103F00CFF0A9B060001330A9351
:103AA000C5E70A22013B5643CBE701980A2103F000
:103AB000FFFE0A9B01900133C6E70A21019A013BF0
:103AC0004A430192CCE7019E284B32005A430192AF
:103AD000C8E70134C6E720002549FFF7F3FA0028BC
:103AE00005D12000FFF702FB08962418E2E620002B
:103AF0002049FFF7E7FA002800D05AE12000FFF73D
:103B0000F5FA09962418D5E60D96D3E6019B0E9397
:103B1000D0E6AB69002B01D028009847059B013304
:103B20000593059B099A9342F3D1DCE6089B089A1A
:103B3000DB43DB171340069A2800D143C917114015
:103B4000AE680022B047D4E608940000F09200006E
:103B50001302000084910000769100008F020000A3
:103B6000D3920000DB920000E492000040420F007C
:103B7000E8920000EC92000038009349FFF7A2FAA7
:103B800000283AD13800FFF7B1FA0623391834AAD1
:103B90002800FFF71DFC041E00D10AE105212800C2
:103BA00000F038F9002800DAADE6229A349B9B1821
:103BB0000522002B00DC079A2800D2B210A9FFF7DB
:103BC000E7FA002800DA9EE6229B0522002B00DCA3
:103BD000079A2800D2B234A9FFF7DAFA002800DAEF
:103BE00091E66B461E7F22A932002800FFF7D0FA2B
:103BF000002800DA87E631007FE638007349FFF7D6
:103C000061FA002833D13800FFF770FA0B23391816
:103C10003DAA2800FFF7DCFB041E00D1C9E00C21FF
:103C2000280000F0F7F8002800DA6CE62B9A3D9B9C
:103C30009B180C22002B00DC049A2800D2B219A990
:103C4000FFF7A6FA002800DA5DE62B9B0C22002B7A
:103C500000DC049A2800D2B23DA9FFF799FA0028A7
:103C600000DA50E66B461E7C2BA93200BDE7380017
:103C70005749FFF727FA002819D13800FFF736FA1D
:103C80003C182378002B00D158E52000FFF70AFBF1
:103C9000002800DA8DE0C1B2280000F0BBF800284F
:103CA00000DA30E62000FFF721FA2418E9E73800AF
:103CB0004849FFF707FA002806D13800FFF716FA3F
:103CC0001A23391822AAA8E538004349FFF7FAF960
:103CD000002806D13800FFF709FA1F2339182BAA4C
:103CE0009BE538003D49FFF7EDF9002847D1380042
:103CF000FFF7FCF93C1820003949FFF7E3F90028E9
:103D00000BD12000FFF7F2F9EB6901212418002BF9
:103D100000D113E52800984710E520003149FFF74E
:103D2000D1F9061E08D12000FFF7E0F9EB69310058
:103D30002418002BEED101E520002B49FFF7C2F932
:103D400000280AD12000FFF7D1F9EB6901212418DE
:103D5000002B00D1F2E44942DCE720002349FFF7C1
:103D6000B1F9002825D12000FFF7C0F9EB6924182C
:103D7000002B00D1E2E40221EDE70134DEE43C0057
:103D8000DCE4EB6A002B02D03900280098473800A9
:103D90001749FFF797F9002800D0BDE43800FFF776
:103DA000A5F93C182000FFF77DFA0490002800DBFD
:103DB000C0E4104B104A280010492C6BA047A222E7
:103DC0003B00920040E4C046F6930000E4930000FC
:103DD000DE920000299300002D93000080950000E2
:103DE0003193000034930000389300003A930000B0
:103DF0001C95000061920000830200008491000085
:103E00000023012213B55242019300934469130029
:103E1000A04713BD0C23F7B504000E000193250045
:103E200038352878B04201D1002097E0102800D919
:103E30008CE003F095FC09215D27373F454D535B2E
:103E4000636C747A82885B00062701212000013FA1
:103E5000FFF7D6FF002FF8D101232B70636A002BE8
:103E600001D020009847019B013B0193002BD6D144
:103E7000A722256B3A4B6CE000212000FFF7C0FF22
:103E80000223EAE7092E01D8012E05D101212000E5
:103E9000FFF7B6FF0A23E0E700212000FFF7B0FF9D
:103EA0000423DAE7052E05D100212000FFF7A8FF43
:103EB0000523D2E701212000FFF7A2FF0623CCE76C
:103EC000072E0DD100212000FFF79AFF2E70C5E7C5
:103ED00001212000FFF794FF0823BEE7052EE3D061
:103EE00001212000FFF78CFF0923B6E7022EE9D05D
:103EF00001212000FFF784FF0323AEE73100012EEC
:103F0000E1D000212000FFF77BFF0B23A5E70C2E5B
:103F100005D100212000FFF773FF0C239DE701214D
:103F20002000FFF76DFF0D2397E70E2ECAD0012169
:103F30002000FFF765FF10238FE701212000FFF726
:103F40005FFF0F2389E70C2EF1D1E2E7A122256B59
:103F5000044B20000449A84701204042FEBDC04652
:103F60007493000041930000549300000722CB1784
:103F700013405B18DB10C05C064B194004D50823C6
:103F800001395B42194301310723591A0841063BA5
:103F900018407047070000800D4B70B50B400C00B7
:103FA000002B04DA0821013B49420B430133072669
:103FB0000125E11731400919F31AC9109D40441831
:103FC000435C002A02D02B43237070BDAB43FBE758
:103FD00007000080F0B58DB0079312AB069204CBBA
:103FE00004001B780A910B9314AB1B780892099379
:103FF0004D4B134004D50822013B52421343013379
:1040000007225B4213400493169B002B02D02369C6
:10401000002B31D1169B20000B990393FFF7FAFE7A
:10402000002878DB089B049A9D1800231E00013DA0
:104030000593049B9D422ADA059B002B04D0636AFA
:10404000002B01D020009847159B002B5DD002214A
:104050002000FFF7DFFE00285DDB159B0022190022
:104060002000A568A847002E57D0039B002B57D1EE
:10407000E022256B2D4B06E0200098470028C9DA86
:10408000B822256B294B20002949A84743E0049B0F
:104090009D4209D122003832137809998B4203D00E
:1040A000013313700123059329000A98FFF75EFF7F
:1040B0000123079A07005B42002A11D02900100053
:1040C000FFF754FF01235B42002809D0069B002B19
:1040D00006D018002900FFF749FF0300581E83414E
:1040E00000221699914203D0049AAA1A51424A41D9
:1040F000019200222000009205993A006769B847B2
:10410000002800DA0126013D93E720000999FFF716
:1041100081FE0028A7DA0126764230000DB0F0BDFE
:10412000039B013B77E7C0460700008076910000C3
:1041300088930000F0B50026040099B006AF3E62F7
:104140007E623E613E63BE61FE63BE62FE61FE62F0
:104150007E63BE63E36820009847C3B20500BB607E
:10416000FF231D401C2D01D900F07EFC280003F028
:104170000BFB1D0057007500BC00E5007B047B04B1
:10418000FE000F016201A301DB0166029002A7029B
:10419000C902FA02330366039403A503B603F603C8
:1041A000080408047B047B047B046B04E36A002B93
:1041B00002D02000B44998472369002B0ED020007C
:1041C000984700280AD0002D06D1ED222000AF4BE1
:1041D000AF49256B5200A84701256D420023B96BFA
:1041E0001A00666B2000B047796B666B01230022D2
:1041F0002000B047F96A666B022300222000B04716
:10420000F969666B032300222000B04704230022D3
:104210002000666BB96AB0472800BD4613B0F0BDF8
:10422000E36A002B02D020009A4998470025F96BD9
:10423000E268EB00994201DCBE688BE72000904702
:10424000002807DA0E22944BFF3220009049256B9C
:10425000A8470FE2FB6A58550135E8E7E36A6E4666
:10426000002B02D020008D4998472000E368984732
:104270007861002803DA8922874B52003EE36946C1
:104280007B69DA1DD3100733DB08DB00CB1A9D46B0
:10429000D20806AB1D00FB609B187B607B68AB42BD
:1042A00018D13A690E23002A00D10C3B3A6A20004B
:1042B00004923A6B02930C23039201937B6900935F
:1042C0000023F9681A00FFF785FE002800DA19E3D9
:1042D000B546B1E72000E3689847002802DA8A2251
:1042E0006D4BCAE728700135D8E7E36A002B02D08E
:1042F00020006B4998470025FA6BEB009A4210DCCE
:104300007A6A0723002A00D1053B3A6A04923A6B85
:104310000293052303920193FB6B0093FB6A7A6B74
:10432000A1E12000E3689847002803DA8E225A4B67
:1043300052008AE7BB6B58550135DDE7E36A002B75
:1043400002D0200057499847002304253B632000F2
:10435000E3689847002802DA92224F4BE8E73B6B6C
:10436000013D1B0203433B63002DF0D164E7E36A88
:10437000002B02D020004C4998472000E368984762
:10438000002802DA2A22444B5EE7C3B23B6253E7BD
:10439000E36A002B02D020004449984700230426FA
:1043A000FB632000E3689847002802DA97223A4B23
:1043B000BEE7FB6B013E1B020343FB63002EF0D103
:1043C00007220733DD171540ED18ED1033002A00E2
:1043D000B96B666B2000B0472A000123796B666BCE
:1043E000B8632000B0472A000223F96A666B78633D
:1043F0002000B0472A000323F969F862666B2000A9
:10440000B04704232A00F861B96A2000656BA84709
:10441000BB6BB862002B0BD07B6B002B08D0FB6A08
:10442000002B05D0FB69002B02D0002800D003E749
:1044300036221F4B08E7E36A002B02D020001D49FB
:1044400098470025FA6BEB009A420DDC0025FA6BC9
:10445000EB009A4200DC53E72000E368984700280D
:104460000EDA3E220C4BEFE62000E3689847002866
:1044700002DA9E22084B5BE7BB6B58550135E1E73A
:104480007B6B58550135E2E7A99300007691000057
:1044900088930000C093000051920000D693000062
:1044A000E8930000FA9300001094000025940000A7
:1044B000379200003B940000E36A002B02D02000FA
:1044C000BD4998470025F96BE268EB00994215DC7D
:1044D0000025F96BE268EB0099421ADC00231D000D
:1044E000BB61FB6B9D4200DBA6E62900B86AFFF7C3
:1044F0003DFDBB6901351B18BB61F2E72000904709
:10450000002802DA4622AD4B9EE6FB69585501357C
:10451000D9E720009047002802DAA322A74B07E73B
:10452000BB6A58550135D4E7E36A002B02D020005E
:10453000A34998470025F96B2000E368EA009142FF
:1045400031DC98477861002837DB7A6A0223002A39
:1045500000D00723DBB27B603B6A200004933B6BF7
:1045600003937B68029305230193FB6B0093FB6A23
:104570007A6BB96BFFF72EFD00287BDB7B69002B84
:1045800000D159E60126FB6B5D1E002D18DA0025CF
:1045900047232E00FB181D70BB699E422CDB7B69F4
:1045A000013B7B61D8E79847002802DAA722834BBA
:1045B000BEE6BB6B58550135BDE750227F4B43E645
:1045C0002900F869FFF7D2FC00280CD02900B86B4D
:1045D000FFF7CCFCF860002807D001222900B86B57
:1045E0007240FFF7D9FC013DCFE732002900B86BDC
:1045F000FFF7D2FCFE68F6E707231E420AD120002F
:10460000E3689847002802DAB2226C4B90E6472311
:10461000FB1818702900B86AFFF7A8FCFD60013587
:104620000028F7D047230721F8183140FFF79EFCF8
:10463000F9680200B86BFFF7AFFC0136ACE7E36A3C
:10464000002B02D020005F4998470025FA6BEB0051
:104650009A4212DC002205230492039202930193F2
:10466000FB6B009313002000B96BFFF7B3FC00282D
:1046700000DBE1E501256D429EE52000E3689847F7
:10468000002802DAB7224D4B52E6BB6B5855013574
:10469000DCE7E36A002B02D020004B499847002555
:1046A000FA6BEB009A42D5DD2000E36898470028BA
:1046B00002DABA22414B3BE6BB6B58550135EFE7B6
:1046C000E36A002B02D02000404998470025FA6B8E
:1046D000EB009A420ADC7A6A0723002A00D1053BE4
:1046E00000220293049205230392B8E72000E368B6
:1046F0009847002802DABD22304B19E6BB6B5855AB
:104700000135E4E7E36A002B02D0200030499847E6
:104710000025FA6BEB009A420DDC0025FA6BEB00EA
:104720009A4214DC0023052204930393029201921F
:10473000FA6B0092F3E52000E3689847002802DA5C
:1047400082221E4B80E5BB6B58550135E1E7200006
:10475000E3689847002802DAC122184BE8E57B6B32
:1047600058550135DAE7E36A002B02D020001949D9
:1047700098470025FA6BEB009A420CDC0025FA6B97
:10478000EB009A42CEDD2000E368984700280EDA5D
:104790008A220A4B58E52000E3689847002802DA8D
:1047A000C422064BC4E5BB6B58550135E2E77B6B71
:1047B00058550135E3E7C04650940000519200007F
:1047C0006A9400007F94000092940000A594000079
:1047D000B8940000CE940000E36A002B02D02000C1
:1047E000A34998470025FA6BEB009A420FDC00259D
:1047F000FA6BEB009A4216DC7B6A0722002B00D191
:10480000053A002302920493052203938FE72000C8
:10481000E3689847002802DA9022964B14E5BB6BB8
:1048200058550135DFE72000E3689847002802DA91
:10483000C822904B7CE57B6B58550135D8E7E36A7D
:10484000002B02D020008C4998473B6B002B0ED0E8
:10485000042E0CD102212000FFF7DCFA002800DA38
:1048600008E73B6B002219002000A568A84720003C
:10487000E3689847002802DA9C227E4BE4E4F023A8
:10488000184207D10F3318400130C1B22000FFF7A2
:10489000C1FAECE601204042F7E7E36A002B02D0C0
:1048A0002000764998472000E3689847002802DAFC
:1048B000A222704BC8E4C3B23B61BDE4E36A002BA3
:1048C00002D020006E4998472000E36898470028EE
:1048D00002DAD322674B2BE5C3B27B62ACE4E36A16
:1048E0006E46002B02D02000664998472000E368FE
:1048F0009847002808DAAC225E4BFF32200062495C
:10490000256BA847B546B5E60502E3682000984741
:10491000002802DAD622574BAFE407210543EA1DEF
:10492000D3170B409B186A46DB105B18DB08DB00D3
:10493000D31A9D467D61002506ABFB607A69EB00CA
:104940009A4200DCADE42000E3689847002802DAD0
:10495000D722484B91E4FB6858550135EEE7E36AEE
:10496000002B02D02000494998472000E36898476F
:10497000002802DADC223F4BDAE4C0B20028F4D18E
:104980005AE4E36A002B02D02000414998472000F6
:10499000E36898477861002802DAC022354B53E477
:1049A0002000E3689847F860002802DAE022314BE3
:1049B000BEE4042600252000E3689847002802DAB8
:1049C000C2222C4B40E42D02013E0543002EF2D1C1
:1049D000F0227B6913422CD11800FF2318400130CC
:1049E000C1B22000FFF716FA002800DA42E60023E1
:1049F00029001A002000A568A847F022FB6813428E
:104A00001AD11800FF2318400130C1B22000FFF76F
:104A100001FA002800DA2DE6BB68182B00D00BE461
:104A200004252000E3689847002808DAE322114BA8
:104A30007EE401204042D3E701204042E5E7013D0A
:104A4000002DEED1FFF7F8FBE36A002B02D0200027
:104A5000104998472000E3689847002801DBFFF7DA
:104A6000EBFBE622034B63E4E8220B4B60E4C04619
:104A7000E494000051920000FA9400000E950000AA
:104A800022950000369500008893000049950000AB
:104A90005F9500007295000085950000C36B0020B3
:104AA000196070477047704710B50349034801F01B
:104AB000DFF8002010BDC0469B950000C80800200C
:104AC000F8B50F0016001D000D4C0E49200001F036
:104AD000BDF83900200001F0B9F820000A4901F0C2
:104AE000B5F80A223100200001F013F9200007492F
:104AF00001F0ACF82900200001F0BAF8F8BDC0467A
:104B0000C8080020A78E0000D1920000A6950000E2
:104B100070B516001C000E2B01D9002070BD0E4A86
:104B20009B009A58B24213DA0C4D0D49280001F04F
:104B30008DF80A223100280001F0EBF8280009491D
:104B400001F084F80A222100280001F0E6F8E4E7E9
:104B5000054A9858E2E7C046D8960000C8080020E9
:104B6000A9950000C79500009C96000070B50C0048
:104B7000134D1449280001F069F810222100280083
:104B800001F0D5F82800104901F060F81022280043
:104B9000210F01F0CCF828000C4901F057F8210B47
:104BA0001022280089B201F0C2F82800084901F05B
:104BB0004DF8210528001022490D01F0C8F870BDFC
:104BC000C8080020E9950000F39500000196000058
:104BD0000B960000C36B10B55869002803DB4B1E11
:104BE000994100F071FF10BD110070B5C56B4A1EF0
:104BF000914168681E00002400F066FFB44209DAA3
:104C00000021286900F060FF0121286900F05CFFA5
:104C10000134F3E770BD70B51600C56B1C00686801
:104C20004B1E994100F050FF3100A8684E1EB14163
:104C300000F04AFF0021286900F046FF01212869A1
:104C400000F042FFE86800F06BFF01384342584132
:104C5000002C03DB844201D00120404270BD10B51E
:104C6000C46B0121606800F0FFFE0121A06800F024
:104C7000FBFE0021E06800F0F7FE2069012100F052
:104C8000F3FE6069002802DB012100F0EDFE002048
:104C900010BD000010B596B01F4C0493189B0190F6
:104CA0000291039200212C220AA80094059302F09D
:104CB00064FF1A4B03210893194B06A80693194B5E
:104CC0000793194B0993194B0B93194B0D93194BE0
:104CD0000E93194B0F93194B1093194B1193194BBA
:104CE0001293194B13936B461593FEF74DF9174C1E
:104CF0001749002800DB1749200000F0B9FF012107
:104D000006A8FEF741F91449002800DB13492000EA
:104D100000F0AEFF16B010BDA0860100E94B000008
:104D20005F4C0000A94A0000614D0000174C0000D4
:104D3000D54B00009D4A0000A54A00006D4B0000C5
:104D4000A74A0000C14A0000114B0000C80800201B
:104D50001D96000032960000419600006596000006
:104D600070B500F0A9FC154C0500200001F0FBF91E
:104D7000002803D12000124900F07AFFFA26B6007D
:104D8000200001F0F0F9002811D1200001F07CFA98
:104D9000002802D10120404270BD00F08DFC401B74
:104DA000B042EDD92000074900F062FFF2E7200091
:104DB00001F00AFA0428EFD1ECE7C046C808002049
:104DC000779600007A9600000378034A9B009B5870
:104DD000002249331A707047BC030020F0B504006C
:104DE00085B01E000AAB1B78103001930BAB1B780B
:104DF000170002930CAB1B780D00039300F0AEF983
:104E00002000243000F0AAF9220000234832A363D6
:104E1000E363236463641370537063729D4205D12E
:104E20002221084B084A094802F02EFE2000019B6F
:104E300025606371029B2771E371039BA671237246
:104E400005B0F0BD14970000259700007997000089
:104E500030B5040085B002AD00680291039201F004
:104E600069F86B79227AE17920680093002301F0D8
:104E700045F92979029A206801F080F8206801F04C
:104E80004FF805B030BD000007B5837A009101925C
:104E9000002B07D09A070AD5EFF310835A425341EB
:104EA000C37272B60099019AFFF7D2FF07BDDB0704
:104EB000F8D5C368014A9BB29360F3E7001800403D
:104EC00010B5006801F03FF810BD000010B5006893
:104ED00001F068F803000020834203DB0C304343F9
:104EE000014A985810BDC046C897000010B5006828
:104EF00001F058F8002805DB0C2343430348C01891
:104F0000406810BD01204042FBE7C046C897000042
:104F100010B5006801F046F8002805DB0C23434378
:104F20000348C018806810BD01204042FBE7C0461E
:104F3000C8970000F0B506001036050089B03000B3
:104F400000F062F9002869D12F002437380000F002
:104F50005BF9041E5FD12800FFF7DAFFC1B2300011
:104F600000F032FA0221300000F052FA2C490122FE
:104F7000300000F025FA2B7C2A4A9B0028009D5027
:104F8000FFF7B4FFC1B2380000F01EFA022138006A
:104F900000F03EFA6B1DDB7F224A9B0028009D50EB
:104FA000FFF794FF01230100220002933000230049
:104FB000049403940194009400F04EFAA86328002E
:104FC000FFF784FF01230200210001933800230032
:104FD000049403940294009400F03EFAE8634020A5
:104FE00002F0AEFD2A0048322864079200280BD058
:104FF0000123137068646B6C10221819E96B10346C
:1050000002F0B2FD402CF6D1079B1B78002B05D196
:10501000380000F093F9300000F090F909B0F0BDCD
:10502000C94D0000BC03002070B5437A0400002B7A
:1050300003D1012243814272C360230048331B78AD
:10504000002B02D12000FFF775FF1826330008213E
:1050500020790D4D4343EB18595600F079FD33008C
:105060000821A0794343EB18595600F071FD08213F
:1050700060794643AD19695600F06AFD034B200084
:1050800006CBFFF7E5FE70BD10980000B4030020CA
:1050900030B50025134B144A01241A609D8020234B
:1050A00085B000931E22114902950194013B1048DE
:1050B000FFF794FE022302932533009329221B1944
:1050C0000C4901950C48FFF789FE0923062200933D
:1050D0000A49029401941B190948FFF77FFE05B0A5
:1050E00030BDC046B403002000093D00B4080020D4
:1050F000D0020020BC0800201C030020A8080020CB
:1051000068030020084B1968002909D1EFF31080CB
:10511000064A002803D172B6BFF35F8F01311170C8
:105120001A6801321A607047780500207405002063
:10513000084B1A68002A0CD01A68013A1A601B68DA
:10514000002B06D1044B1B78002B02D0BFF35F8FDE
:1051500062B670477805002074050020FF2310B563
:105160000370C023002104009B00417041808380B4
:105170000C22083002F001FD200010BD01230A00BE
:1051800010B51A40194208D00C4A1370033343700B
:105190008368002B00D0984710BD0223194204D029
:1051A00006490B70C3684270F3E704231942F3D039
:1051B000024A1370033343700369EAE74E48004123
:1051C00010B5FFF79FFF0C4B1B8C1B071B0F0B2B06
:1051D0000FD80A4A9900885800280AD00F24084995
:1051E0000A78A24313430B70064B1978C9B2FFF734
:1051F000C5FFFFF79DFF10BD004800417C05002062
:105200003F4800414E480041F8B5002302780500B0
:1052100018000B2A77D93C4E2B702B780B2B07D814
:1052200001229A403168114204D001332B70F4E717
:10523000012068E0FFF766FF3768344C002F2BD160
:105240002022334B334859690A435A611022D969E5
:105250000A43DA610222238839009343238023889A
:10526000013A134323802C4B6063BF32A36302F0E7
:1052700084FCC0223900284802F07FFC4022C12073
:10528000264B80002380264B26491A601A5811406D
:10529000C02212040A431A5001231A0029783068E8
:1052A0008A40024332600F261F4A880085501F48FB
:1052B00031400278B2430A43027002201C4A11783E
:1052C00081431170117819431170297822698B403C
:1052D0009A43226160223F21636C934363642A797D
:1052E000636C0A40134912020B40032113436364A9
:1052F0006A79636C0A40104992050B40134363645A
:10530000FFF716FF0020F8BD70050020004800419F
:1053100000040040B0040020F0030020020F000051
:1053200000E100E0FFFF00FF7C0500203F48004156
:1053300040480041FFC0FFFFFFFF3FFF70B5050081
:10534000FFF7E0FE6B785CB2062B2BD02B780224A3
:105350000B2B27D801229A40144B1968114221D0F7
:105360001968914319601B68002B14D14022104B1F
:10537000DA67BFF34F8FBFF36F8F21000D4A0E31F5
:105380001388A34313800C4BDA698A43DA615A69A4
:1053900010318A435A6100242B78084A9B009C50A4
:1053A000FF232B70FFF7C4FE200070BD70050020A6
:1053B00004E100E000480041000400407C050020BA
:1053C0000232920011507047037870B505000C004E
:1053D00001710B2B14D8FFF795FE29780F2509488A
:1053E00029400378084AAB430B4303703F23516CB9
:1053F0001C40064B240219400C435464FFF798FEEE
:1054000070BDC0463F48004100480041FFC0FFFF5B
:10541000037870B505000C0041710B2B14D8FFF711
:1054200071FE29780F25094829400378084AAB43C3
:105430000B4303700323516C1C40064BA405194019
:105440000C435464FFF774FE70BDC0463F480041F2
:1054500000480041FFFF3FFFF0B587B001930CAB60
:105460001E780DAB1B78050002930EAB1B780078FD
:10547000039310AB1F78049105920B2802D90020EA
:1054800007B0F0BD6B78062BF9D0AB78002B00D1BC
:1054900079E01021080002F049FB0028EFD02B78BA
:1054A0003B4A1B019B181A00D168002904D0D1681F
:1054B0008B4201D0D268F7E7D06001220223AA70A4
:1054C000964203D0DB18022E00D013000624018878
:1054D000114301800188A143018001881234A14356
:1054E0000180153C018826402A4C360221400E439B
:1054F0000680029E0188284C16402140B6020E43C9
:105500000680039E0188254C16402140F6020E437A
:1055100006800188224E3A40314012030A43072197
:1055200002800F9A114002884903D204D20C0A4328
:1055300002806A4692884280049A4260029A002A57
:1055400008D0019A41685A43002F01D00F9CA24015
:105550008A184260059A8260039A002A09D0019A4B
:1055600084685A431300002F01D10F9A9340E31827
:1055700083600023EA789A4203D02B78044A1B0107
:105580009B18C3607CE7024B0001C01895E7C0463A
:10559000B0040020FFFCFFFFFFFBFFFFFFF7FFFF52
:1055A000FFEFFFFF10B5024801F01CFF10BDC04621
:1055B000AC05002013B51149114800F01BFC11493E
:1055C000114800F017FC1149114800F013FC114973
:1055D000114800F00FFC114C1149200000F00AFCAA
:1055E0001049114800F006FC00220123210001921D
:1055F00000930E4801F08CFE13BDC0460008004227
:10560000A8080020000C0042AC0800200010004256
:10561000B008002000140042B4080020B8080020A0
:1056200000180042001C0042BC080020AC0500200D
:10563000FEE70000034B10B51B68002B00D0984715
:1056400010BDC046C00800200F4A1048110010B518
:105650000F4B824202D0934209D11300824209D1FA
:1056600000F084F801F0C4FFFEE710CB10C18142C6
:10567000FBD3F3E7074A8B42F2D00021064B9A4254
:10568000EED202C2FBE7C046000000200401002069
:10569000C49D000010010020C80E002010B500F0CD
:1056A00062F8002801D100F053F810BD014B1860DA
:1056B0007047C046C0080020014B18687047C046BC
:1056C000C4080020F7B51348012284461249134C40
:1056D0008E68636805689B0E134001928868626853
:1056E000019F920E3A4067463F6893420ED1BD42F9
:1056F0000CD186420AD35B19FA254868AD00861B97
:1057000007486B437043000DC018FEBD3D001300F9
:105710000600E3E7C408002010E000E000ED00E030
:105720005555000070B5041E11D0FFF7CBFFFA26C7
:105730000500B60000F016F8FFF7C4FF401BB042AA
:10574000F8D3FA23013C9B00ED18002CF4D170BD76
:1057500010B5034A13680133136000F011FB10BD4C
:10576000C408002070470020704700001E22F0B5DA
:10577000504851494368514D93431A000223134343
:10578000436008238A691343FE228B612B68D2038E
:105790009B0213404A4A13434A4A9361130004226E
:1057A000DC681442FCD00124474A14701678264263
:1057B00003D0567876B2002EF8DB0124946054783A
:1057C00064B2002CFBDB414C5460547864B2002C72
:1057D000FBDB8224E4015480547864B2002CFBDBB0
:1057E00002249C840E34DE682642FCD0384CDC62F5
:1057F0001024DE682642FCD02C68A40E3F2C00D179
:10580000203C9E6A334FA4023E4034439C629C6A13
:10581000314EA40AA40234439C62304CDC62002462
:105820009C841034DE682642FCD02D4C9C841024CD
:10583000DE682642FCD002249E8C34439C841024D3
:10584000DE682642FCD000249460547864B2002CB8
:10585000FBDB244C5460547864B2002CFBDB1C6AE4
:10586000214E344080261C621C6AB4431C62032310
:1058700093601E4B536053785BB2002BFBDB00231D
:10588000FF240B721A4A4B728B72CB72194B1A603F
:10589000194A2B6811689A065B01C90E2340520F02
:1058A00012020B431343154A1385802342681343A6
:1058B0004360F0BD004000410004004024608000CF
:1058C0000606000000080040000C00400104010032
:1058D000B905FF7DFF03FFFFFF01000080BB0A1C2D
:1058E0002405000000070300FFFCFFFF0306010082
:1058F000006CDC02000000202060800000400042BC
:10590000FA212E4B10B51868890001F047FF80235B
:1059100001385B0498424FD229492A4A4860C02086
:10592000136A00061B021B0A0343136200238B60E9
:1059300007330B608021136A09061B021B0A0B4305
:105940001362FC22204B196A0A431A62FF22196A69
:1059500012020A431A62A022196AD2020A431A6288
:105960001A4B1C005A7852B2002AFBDB184A5A80A4
:10597000184B1A00597EC9090129FBD0C82189009A
:1059800099800521D970537EDB09012BFBD0C02300
:1059900000205B011361907000F022F863785BB225
:1059A000002BFBDB0C4B0D4A6380D379DB09012B09
:1059B000FBD04123537010BDFEE7C046000000201D
:1059C00010E000E000ED00E000040040000C0040AA
:1059D0001E400000004000422140000000480042FC
:1059E0001F4900B50B004A7ED209012AFBD00138BD
:1059F0000A282FD801F0B4FE1B2E2E2E2E2E062E96
:105A00002E2411001A6917490A400F211A615A7889
:105A10008A43110001220A4310E01A6911490A4021
:105A20000F211A615A788A4311000322F3E71A6999
:105A30000C490A400F211A615A788A435A7000BDF6
:105A40001A6908490A400F211A615A788A431100DD
:105A50000222E0E7F022196912050A43F3E7C04683
:105A600000400042FFFFFFF0182310B50824584300
:105A7000134A13181C57013412D001245B68825654
:105A80009C4003290CD808000E49D2015218D318A3
:105A9000403301F065FE0210060B022119705460BC
:105AA00010BD0621197054609461F9E70621197040
:105AB00054605461F4E7022119709460F0E7C04625
:105AC00010980000004400411823F0B50824584302
:105AD000114A13181C5701341BD0012635005F688A
:105AE0008356BD400D4ADB019A18906805420BD1E0
:105AF0000C00601E8441D2194032107834400336C5
:105B0000A400B04320431070044A9B18002901D11F
:105B10005D61F0BD9D61FCE710980000004400410C
:105B2000182310B50824434307490020CA18145706
:105B3000013408D05B560549DB015B18186A5368CD
:105B4000D8400123184010BD1098000000440041C7
:105B5000182370B5082643432A4AD518AE57340097
:105B6000013607D0072907DC00291DDA01314C4234
:105B70004C416442200070BD0B00083BDBB20024A6
:105B8000032BF7D8092903D12100FFF76DFFF1E7B7
:105B90000A2904D10839FFF767FF0024EAE7002447
:105BA0000B29E7D10A39F0E76C68012520009B56E4
:105BB000C9B262082840DB012C4211D012480E35D0
:105BC0001B189A1830321078090128400143C9B2D5
:105BD000117041221B19403319780A431A70DCE70F
:105BE0000F26094D5B199A18303215781B19B543E9
:105BF0002943117041224033197804000A431A7076
:105C0000B8E7C0461098000000440041F8B5050010
:105C10000E0017000024BC4208D02B682800315D1C
:105C20001B689847002801D00134F4E72000F8BD34
:105C300070B505000C00081E07D002F0BDFB2B68F4
:105C40000200210028005B68984770BD10B5FFF77F
:105C5000EFFF10BD10B503681B68984710BD00002A
:105C600010B50249FFF7E4FF10BDC046189C0000C4
:105C700070B50400FFF7DCFF05002000FFF7F0FF20
:105C8000401970BDF0B58BB06B461400002205338F
:105C900007000D00DA77012C00D80A2409AE28008D
:105CA000210001F001FE0300CAB2080029001D0016
:105CB00013003733DBB2092802D813003033DBB2CC
:105CC000013E33708C42EAD931003800FFF7B0FF53
:105CD0000BB0F0BDF8B507000D00161E04D1036827
:105CE000C9B21B689847F8BD0A2A0CD100290BDA03
:105CF0002D21FFF7AFFF3200040069423800FFF7A3
:105D0000C1FF2018EFE7D2B229003800FFF7BAFF31
:105D1000E9E710B5FFF7DEFF10BD70B50400FFF72F
:105D2000D9FF05002000FFF79BFF401970BD10B59B
:105D3000002A04D10368C9B21B68984710BDD2B2CB
:105D4000FFF7A0FFFAE710B5FFF7F1FF10BD70B540
:105D50000500FFF7ECFF04002800FFF781FF201883
:105D600070BD0000014B18607047C0460400002061
:105D70000122024B52421A607047C04604000020C4
:105D8000164A10B51368591C27D0013B1360002B2D
:105D900023D172B68122124B92000433934213D363
:105DA000104A01211000147D0C42FCD02021148BDC
:105DB000FF319B085B0021431183D3610A4B1380A1
:105DC0000123027D1A42FCD0BFF34F8F074B084AD4
:105DD000DA60BFF34F8FC046FDE710BD040000201E
:105DE000002000000040004102A5FFFF00ED00E0A0
:105DF0000400FA05016070479446F0B505AC2578BB
:105E00009C1E621E9441624606689207376824060B
:105E10003A4322430724326000682140AD01002448
:105E200042682943022B00D05C030A4322434260AC
:105E3000F0BD30B5C0250368AD031C6812052A40CB
:105E40002243C0240904A40221400A431A600368C3
:105E50005A6814435C6030BD0123026811680B432B
:105E6000136003681A68D207FCD4DA69D207F9D440
:105E700070470223026811680B4313600268D369FC
:105E80009B07FCD4704703681A7ED20702D41A7E9F
:105E90009207FCD57047002203685A837047036855
:105EA000187E4007C00F70470368187EC00970470E
:105EB000802302685B42117E0B43137670470368B0
:105EC000588B8007C00F704702230268518B0B4329
:105ED000538370470368187EC007C00F704703687C
:105EE000188DC0B2704703681A7ED207FCD589B2FC
:105EF000012019857047012203689A7570470122B5
:105F000003681A7570470123026811680B43136018
:105F100003681A68D207FCD4DA69D207F9D470474B
:105F20000223026811680B4313600268D3699B0760
:105F3000FCD470470368DA699207FCD402211A681E
:105F40008A431A6070470268936A5B0A5B020B43DC
:105F5000936203681A7E5207FCD5986AC0B27047F4
:105F600010B50548490001F019FC80B2002801D0A5
:105F7000013880B2C0B210BD006CDC0270B50C00FC
:105F80000126110063080268334034401568240775
:105F90005B0723432B4313600468FFF7E1FF207383
:105FA00070BD00000368104A934213D00F4A934219
:105FB00012D00F4A934211D00E4A934210D00E4A8B
:105FC00093420FD001200D4A4042934201D1063046
:105FD00040B270470020FBE70120F9E70220F7E715
:105FE0000320F5E70420F3E700080042000C00421C
:105FF000001000420014004200180042001C004241
:10600000F8B5FFF7CFFF00282CDB1D4BC000181898
:1060100005230479C3560320FF221840C0008240A4
:10602000C021D2438140002B1DDB1F2501201D40D4
:10603000C026A840134D7600A851C0269B089B009F
:106040005B19B6009F593A401143995128603F238C
:1060500023408024E4011C430B4B5C805A7852B2ED
:10606000002AFBDBF8BD0F200340083B07489B08D4
:106070009B001B18D86902401143D961E7E7C0466D
:106080001C9C000000E100E0000C004000ED00E07E
:10609000F8B504000F0016001D00FFF7B1FF200047
:1060A000FFF7DAFE1C21BB000B4071072268090CC8
:1060B0000B431360842322689375012F1AD110219A
:1060C000012E00D008390C4B69431868C00001F05C
:1060D00065FB0722216802408B895203DB04DB0C3D
:1060E00013438B81226803049089DB0C400B40032F
:1060F00018439081F8BDC04600000020F7B50500A8
:10610000019308AB0C0016001F78FFF7FCFE280077
:10611000FFF776FFC021C022890224040C409203BD
:10612000BF073605274316403E430C2707222B683E
:106130003E431E60019B296813401A0080239B0286
:1061400013434B602A68D3695B07FCD4F7BD3F203B
:10615000704713B56B460268D9710733546819004C
:106160000122A04716BD10B50221006900F02EFCE7
:1061700010BD10B50321006900F03EFC10BD000009
:1061800010B51300084A0400D279002A03D1012374
:106190000020636010BD0A000069032100F018FDB3
:1061A0000028F4D0F6E7C0460C00002010B5054CDE
:1061B00003002068421C04D11A68180052699047F5
:1061C000206010BD58000020074A0300106810B579
:1061D000411C03D001235B42136010BD02211869EA
:1061E00000F0E8FCF9E7C0465800002010B503783D
:1061F0004222023303700249024800F089FD10BDBB
:1062000014000020E408002010B501780300427853
:106210000020A12908D1212A05D1174917481A3A87
:1062200000F076FD012010BD2129FCD1202A13D1D8
:1062300011491248193A00F023FC96220E4BD20065
:10624000196891420ED1DA7901231A420AD1FA2053
:10625000FFF788FD0020E6E7222A06D19A78064B50
:10626000DA71EAE7FFF784FDF4E7232ADBD15A88E5
:10627000034B1A60D7E7C0460C000020E40800205A
:10628000080000207047000010B5FFF715FAFA2348
:1062900000245B00984207D3044B0A20DC79631E7C
:1062A0009C41E4B2FFF73EFA200010BD0C00002034
:1062B000024BD879012318407047C0460C000020DB
:1062C000FA220021054B92009A60054A08321A60B2
:1062D000044A59601A6119767047C046C808002000
:1062E0004C9C0000E4080020704770B50F26CB1DC1
:1062F00002003240D5B22C0000093034092A00DDFA
:1063000007341C705A1E994200D170BD1300EFE78C
:1063100010B50400806901F01DFCA06A01F01AFCB0
:10632000200010BD10B50400FFF7F2FF200001F0BF
:1063300085F9200010BD000070B5032908D1324B4B
:106340008000C058002802D00368DB68984770BD01
:1063500082291FD1C3B22D4D5A01AA1891692C4C24
:1063600080010C40C02189052143916129490833EE
:106370004018802150612A685B01D0180479494295
:10638000214301717020995C814308003021014351
:106390009954DCE70029DAD1C024C1B21B4E4A016E
:1063A000B21893681A4DA4052B40234393601A4BEF
:1063B0008001C0180B0050603068072608335B016D
:1063C000195CB1430E0001213143195491690D400C
:1063D0002C43946170240F495161195CA1430C0056
:1063E00010212143195491680C4CC3180C40802192
:1063F0004903214391609168890B89039160402290
:1064000059790A435A71A2E7E80800209C0D002040
:10641000FFFFFF8F10090020D00A0020FF3F00F08F
:10642000EFF3108303600123436072B67047036883
:10643000002B02D162B6BFF36F8F704737B5056985
:1064400004006846002D14D1FFF7EAFF019B621D8E
:10645000013B02D3D57FEDB2FAE768460193FFF71F
:10646000E6FF002D01D100203EBD206AE369C01A7D
:10647000FAE7FFF7D5FF22000025019B3432013BEC
:1064800002D31578EDB2FAE768460193FFF7CFFF24
:10649000002DE8D0206BE36AE9E70000F0B5FF25A6
:1064A00001264268836811682B405B01CC1864198F
:1064B000A77AD3183E43A672C6689C680B4FB604F1
:1064C00036093C4034439C6083682B405B01D21802
:1064D0009468A40BA4039460402283682B40083383
:1064E0005B01CB1819790A431A71F0BDFF3F00F028
:1064F000F7B5056904000E0017006846002D43D16A
:10650000FFF78EFF019B601D013B5A1C0BD0C27F21
:10651000591E002A05D168460193FFF788FF28001D
:10652000FEBD0B00F1E768460193FFF780FFE369CA
:10653000AF420AD0226A9A4207D95A1CE261A26984
:10654000D3181B7873550135F1E7226A9A42E6D1D8
:106550000023E361013368462361FFF761FF2200F6
:106560000021019B671D013B3532581CD3D0F977C0
:1065700010785E1E002805D0200011700193FFF7EF
:106580008DFFECE73300F0E7FFF74AFF2000019BA7
:106590003430013B5A1C06D00278591ED5B2002A6D
:1065A000B9D00B00F6E7684601930025FFF73FFFDF
:1065B000E36ABD4202D0226B9A421CD8226B9A42F7
:1065C000ADD100236846E3622361FFF729FF27006E
:1065D00022000021019B3437013B3532581C9AD0F0
:1065E000397010785E1E00280DD0200011700193C4
:1065F000FFF754FFEBE75A1CE262A26AD3181B783C
:1066000073550135D4E73300E8E7F7B5826843688E
:10661000D2B2110004000831186849014118C87944
:10662000C00729D501255201CD719B189A6861696F
:106630009204920C002923D12262226A002A41D0BE
:10664000A26A656168465A60FFF7EAFE3422944602
:106650002200019B671D013BA4443532591C2DD0FB
:106660006146FD770978581ECEB2002905D0019306
:1066700068461570FFF7DBFEF7BD03001670EDE707
:106680002263226B002A1DD0002227006261A269CA
:1066900068465A60FFF7C4FE019B621D9446013BA9
:1066A00034373032591C09D061463D70C97F581EBD
:1066B000CEB20029DBD103001670F3E768460193E0
:1066C000FFF7B5FE2000FFF7E9FED5E713B56A46F0
:1066D00000230C00D01DD371FFF788FD2368181824
:1066E000206000F0E3FF6B46D91D00F0ABFF23688C
:1066F00018186B462060D87916BD000003290ED10A
:1067000080220E4B62311B68FF31585C52420243BB
:106710005A5468226339FF32FF399954704701296E
:10672000FCD18022054B24311B68FF31585C52425A
:1067300002435A5428222339FF32EDE79C0D0020F2
:106740002023264A70B5D16904000B43D36101228E
:106750000F2023490B7813430B70224B1978814388
:10676000197006211D78294319701F490D782A4395
:106770000A701A7802401A70602219780A431A7057
:106780001A4B1B4A5A805A78D209FCD11948FEF795
:106790008DFF194D280000F09DFF280000F0B0FF8C
:1067A0007F212B68C1201A7880000A401A700422C9
:1067B00019780A430C211A701A898A430F491A81E1
:1067C0000A581202120A0A5080220A6019787E3A88
:1067D0000A431A700123237070BDC04600040040B4
:1067E000584400413C44004159440041000C0040E1
:1067F00006400000517100009C0D002000E100E007
:106800000078002810D00121084B1B681A898A43A0
:106810001A810822198B0A431A830422198B0A430E
:106820001A830022024B1A607047C0469C0D00205C
:10683000940D00200A000E498B699B0B9B038B6112
:106840000B680221FF3319729879823901439971DB
:10685000197A8907FCD57F20064B0240997A81433B
:10686000114380229972997A52420A439A72704770
:106870009C0D00200050004110B50B790C00002B3E
:106880000CD10800FFF7C0FC002801D0012010BD8A
:10689000094A93699B0B9B039361F7E700F006FF9E
:1068A000210000F0F3FE0028F0D1034A93699B0B0E
:1068B0009B039361EBE7C0469C0D0020F7B50D00EC
:1068C0001100832A19D1EBB2324C5A01A2189169F6
:1068D0003148AD010840C0218905014391612F492C
:1068E00020686D187021083355615B011A5C8A437A
:1068F000110040220A431A54F7BD022A45D1284A02
:10690000AB009858002802D003685B69984738208C
:1069100000F090FE234B8027036000231D4E7F0074
:10692000421D036203614361C36146608560C760C5
:10693000D3772F32C362036304001370380053709F
:1069400001F0FEF80190A061380001F0F9F8EBB217
:106950005A01A062B21891680F4808330840C0215C
:10696000890501439160316807265B01585CAD00E1
:10697000B0430600032030435854019B200053606D
:10698000FFF78CFD064B5C51B6E72800FFF7D4FCFF
:10699000B2E7C0469C0D0020FFFFFF8F10090020CA
:1069A000E8080020789C000070B505000124064B23
:1069B000A200D258002A05D021002800FFF77EFF50
:1069C0000134F4E770BDC0465C000020084B8A002B
:1069D000D05810B5002803D003689B68984710BDB5
:1069E000044BC9B24901591888688004800CF6E745
:1069F000E80800209C0D002010B50C00FFF7E6FF12
:106A000000280CD0064BE4B21968802308346401D6
:106A10000C1962795B42134363710223E37110BD69
:106A20009C0D002070B5CBB2124A13485C0189015D
:106A30008918021951609168104D08330D4080216A
:106A400089022943402591609168890B89039160EF
:106A500001685A018A1816793543157195796D06C2
:106A6000FCD55B01C918CB79DB07FCD50019806820
:106A7000C0B270BDD00A00209C0D0020FF3F00F086
:106A800070B5140040220B4B0D001B68FF33597981
:106A90000A435A710021FFF7C5FFA04200D9200028
:106AA00000230549A34203D0CA5CEA540133F9E745
:106AB00070BDC0469C0D0020D00A002010B50C48C7
:106AC000C9B24901421893689B049B0C3F2B0BD918
:106AD0009468403B9B04A40B9B0CA403234393604A
:106AE00041188868C0B210BD93689B0B9B03F6E702
:106AF0009C0D0020F0B51C002A4B85B01B680600D9
:106B00000D000192002B49D0274B8A00D058002855
:106B100008D0036822005B680199984704002000B0
:106B200005B0F0BD3000FFF751FF844204D92900C1
:106B30003000FFF74BFF040029003000FFF7BEFFD5
:106B40000121EBB2194F03935B010293029A3B6858
:106B500001989B18FF335A7A0A435A72144BA901C1
:106B60002200C91801F000F8002CD8D0290030000C
:106B7000FFF72CFF0028D2D14021039B3A6808334D
:106B80005B01D3181879014319710121D971029B56
:106B9000D318FF339A7A0A439A72C0E701246442F9
:106BA000BDE7C046940D0020E80800209C0D0020A1
:106BB000D00A002013B56B46DC1D22000123FFF72D
:106BC00099FF012801D1207816BD01204042FBE742
:106BD000F0B51C00354B85B01B680E000192002BF0
:106BE00035D08023DB019C4231D80027304B8A010D
:106BF000D3180293002C2CD02E4B1B680393FF2339
:106C000033401D0000930835039B6D015D19AB797E
:106C1000DB0921D0284B2949186800F0BFFD284B1B
:106C20001721584300F0BAFD264BEA79920713D496
:106C30009A5D002A01D10138F7D201229A55009BB2
:106C40005A011C4B9B189A69920B92039A61012777
:106C50007F42380005B0F0BD00221A4B25009A553E
:106C6000402C00D940252A000199029800F07CFFB1
:106C7000009BA9045A010F4B890C9B18029A7F199B
:106C80005A619A69641B920B92030A439A61009BB2
:106C9000039A08335B01D3180222DA715979823AD8
:106CA0000A435A71019B5B190193A3E7940D0020DD
:106CB000100900209C0D00200000002040420F0021
:106CC000701101000509002070B50C001D000D4B6E
:106CD000A601F618110030002A0000F045FFE4B2CA
:106CE000094A640114196661A369084928000B4028
:106CF000A361A169AB04890B9B0C89031943A161B2
:106D000070BDC046100900209C0D0020FF3F00F020
:106D1000F7B5104B0F001B7814000190002B0CD11D
:106D20000D4B16001D78002D09D00C4E0C483588EF
:106D300028182D1900F018FF35802000FEBD002E08
:106D4000FBD033007A1900210198FFF7BDFF2D1801
:106D5000361AF4E7900C0020910D0020920D0020CF
:106D6000910C0020F8B500200D00140000AF012A9E
:106D700027D9D31D6A46DB08DB00D31A9D460800DD
:106D800001F01AFB6E46032302220021013040006D
:106D900030707370A2420DD2287800280AD0531C9C
:106DA000DBB20135B0549C4203D00232F154D2B26E
:106DB000F0E7220031000448FFF7AAFF431E984184
:106DC000C0B2BD46F8BDC046E4080020F0B50025BD
:106DD000012785B0184B0E0069461F70040000950E
:106DE000FFF774FC154B01A90B806A3BFF3BCB718D
:106DF0006E3B0B72009B320009334B800E4B8D7142
:106E00004F7108711D70092E0FD00D4E0922377079
:106E10000C4F200000953D80FFF77AFF6946200067
:106E2000FFF754FC3A88084935702000FFF770FFDF
:106E3000012005B0F0BDC046900C00200902000002
:106E4000910D0020920D0020910C0020F0B5CF781C
:106E500005000E0093B0022F09D1C9882B48FFF717
:106E6000B5FF441EA041C4B2200013B0F0BD00F035
:106E70001DFC310000F0FAFB002803D0C417241ACF
:106E8000E40FF1E7012F0BD1F2882149112A11D823
:106E9000D2B2002A0ED02800FFF73AFF0124E3E720
:106EA0000400032FE0D1B378002B05D1F2881949F3
:106EB000032AEDD90A78EEE7022B06D1B2791649FA
:106EC0002800FFF74FFF0400CEE7012B02D1B27973
:106ED0001249F5E7032BC7D1114B01A91868FFF739
:106EE00004FA104B03A91868FFF7FFF90E4B05A928
:106EF0001868FFF7FAF90D4B07A91868FFF7F5F9BD
:106F00006B460533DC77B27901A9D9E7E4080020A4
:106F1000A59C00009A9C0000909C00009E9C000094
:106F20000CA0800040A0800044A0800048A0800009
:106F300037B5050048780C000B2810D800F010FC7D
:106F4000061B0F310F484D7551546E71097801AA17
:106F5000002906D1022311802800FFF7B5FE012089
:106F60003EBD00231380324B1B78012B00D11370E0
:106F700002230021F0E78A780023012A09D16A461A
:106F800093802C4B1B78012B00D11371022301AA93
:106F9000EFE7274A1370284A93699B0B9B03936181
:106FA000DDE78C78012C07D1224B01AA1C70234B02
:106FB0001B7813702300DCE700208442D0D11C4BE7
:106FC00001301D4A187093699B0B9B039361C7E7BF
:106FD00028008978FFF72EFCC1E72800FFF736FF6D
:106FE000BEE70123164AC4E70B780020DB06B7D1C1
:106FF0002800FFF7D9FC2A200221A278104BFF308D
:107000001A600D4A13681C5C21434A241954FF344A
:10701000195D2938FF3801431955D4E70123094A7E
:10702000A7E78A78074B1A60B5E7002098E7C046C3
:10703000040900200C0900209C0D00201A9C00006F
:10704000940D0020980D00203B4BF7B51C780700ED
:10705000002C64D1394E33689B8B1B070ED5210061
:107060002000FFF769F9326810231100FF31887A98
:1070700003438B72324B1C600823938333689A8BD3
:10708000520701D504229A83FF331A7AD2061ED5FD
:1070900010221A72597930320A435A7160232949F1
:1070A00038000A781A423BD1FFF742FF3368FF33BA
:1070B000002838D08022997952420A439A711A7A6C
:1070C000520604D540221A72597A0A435A7233681A
:1070D00000241D8C01239D43EDB20193E1B2002DEC
:1070E0001DD02B002341019A134215D02300326892
:1070F00008335B01D318DA79D20702D4DB799B0716
:1071000007D5114BA200D058002810D003681B6887
:107110009847019BA3409D430134092CDED1F7BD64
:10712000FFF7AAFBC2E72021084A9171C7E73800A0
:10713000FFF7E4FAEDE7C046910D00209C0D00201A
:10714000940D0020D00A0020E8080020FF500041E4
:1071500010B50248FFF778FF10BDC046E4080020D4
:10716000014B024A1A6070479C0D002000500041FC
:107170000120704710B50368014A1B6A984710BD8B
:10718000130400000300FC33D96F9A6F914203D0BF
:10719000DB6FC018007D704701204042FBE710B54F
:1071A00004000069FEF758FE22000023FC329367BA
:1071B000D3679E229200A4186366A36610BDF023D5
:1071C0001B011940802306209B0099420AD00133FD
:1071D000FF330130994205D0802300205B009942A3
:1071E00000D1053070470F2001400020012903D055
:1071F0000239481E8141481C70470000B923F0B590
:10720000182785B002919B000400C05C3B00082158
:107210004343324E1500F3185956FEF799FC304B94
:107220000821E05C3B004343F3185956FEF790FCFD
:107230002C4BE25C0393022A09D11133E05CFF2856
:1072400005D008214743F7197956FEF781FCBA2784
:10725000BF00E05DFF2819D00121FEF705FC1822D0
:10726000E35D21495A43B356B618DB015818BB21D8
:10727000890060501D4901225B18BC2189006350C0
:1072800071688A40BD21890062501A600122029B08
:1072900011002069FEF7FCFE29002000FFF78FFF98
:1072A000290006002000FFF79EFFF0221540303D28
:1072B0006A42554103003100206901220095FEF722
:1072C0009BFD0B4B2069E25C039BE15CFEF7B1FD8B
:1072D0002069FEF7CEFD05B0F0BDC0461098000055
:1072E000E5020000E7020000184400411444004198
:1072F000E6020000AF2210B504000021520000F0A9
:107300003CFC23000022FC3320005A669A6610BD24
:10731000F7B51D0008AB1B780400009309AB1B7880
:107320001600019300234360FA239B008360104BF7
:107330000F00083303601430FFF7DCFF20007D30BE
:10734000FF30FFF7D7FFB9239B002761E654094BB5
:10735000009AE554084B2000E254019A074BE2548E
:10736000BA22E93BFF3B9200A3541032A354FEBD66
:10737000B89C0000E5020000E6020000E702000001
:107380000300FC33586E9B6EC01A01D55F30FF308E
:10739000704710B5040020007D30FF30FFF7F0FF8C
:1073A0000028F8D12069FEF76EFD10BD10B514302D
:1073B000FFF7E6FF10BD0300FC33596E9A6E914251
:1073C00005DB5A6E986E801A5E30FF307047986EFB
:1073D0005B6EC01A0138F9E710B57D30FF30FFF75A
:1073E000EAFF10BD70B504000069FEF768FD0028D3
:1073F00005D02069FEF773FD2069FEF765FD206961
:10740000FEF74DFD002824D025002069FEF767FD1A
:10741000AF21FC350600A86F4900013000F044FAA6
:10742000EB6F994203D0AB6FE3181E75A967BA23BF
:107430009B00E35CFF2B0CD020001430FFF7BBFF58
:10744000092806DCBB23BD229B009200E358A2580A
:107450001A602069FEF73EFD00281DD020007D3017
:10746000FF30FFF78DFF002825D09E239B00E618F4
:10747000B26E736E9A421BD0BE22AF21B36EB06E55
:10748000E3185200013049009D5C00F00DFAB1662E
:107490002069E9B2FEF727FD2069FEF705FD002807
:1074A00005D02069FEF704FD2069FEF7F4FC70BDED
:1074B00001256D42ECE72069FEF721FDECE70000B5
:1074C000F7B5040000690E00FEF704FD002847D15F
:1074D000AF277F009E239B00E518686EAB6E3900D6
:1074E0000130019300F0E0F9019B994224D1EFF3C0
:1074F0001083DB070ED4204B5B68DB05DA0D002B15
:10750000E8D0103A53B212060DD49B081B4AC03380
:107510009B009B582069FEF7DDFC0028DAD0200094
:10752000FFF760FFD6E70F221340083B144A9B0881
:107530009B009B181B68EDE7AF21686E4900013086
:1075400000F0B2F9AB6E994205D0BE226B6E5200CC
:10755000E3189E5469662069FEF7CDFC0120FEBD4C
:1075600020007D30FF30FFF70BFF0028B0D1310045
:107570002069FEF7B8FCF1E700ED00E000E100E073
:107580001CED00E070B50500FC35EA6FAB6F040040
:107590009A421DD0AF21EB6F4900C318E86F1E7DE2
:1075A000013000F081F9E967BA239B00E35CFF2B0F
:1075B0000CD020001430FFF7FEFE0A2806DDBC23A5
:1075C000BD229B009200E358A2581A60300070BDA3
:1075D00001267642E8E710B5041E05D000F0A8FEAB
:1075E000210000F04BFA0C00200010BD7047000095
:1075F00010B5FEF785F900F075FAFFF7F7FF0120E7
:10760000FEF790F8094C2000FFF79AF82000FFF7EA
:10761000F7F8FAF741FEFBF725F9FEF7A3F8044B5C
:10762000002BF8D000E000BFF5E7C046E4080020DA
:107630000000000010B500F083FA10BD10B500F096
:1076400089FA10BD70B50E0000254468002C0BD0DF
:107650002368310020005B689847002802DBE4685B
:107660002D18F3E701256D42280070BD70B50D009F
:107670004468002C08D02368290020009B689847A4
:10768000002802D1E468F4E7200070BD70B50D0059
:107690004468002C08D02368290020001B68984704
:1076A000002802D1E468F4E7200070BD064A0123F7
:1076B000116810B50C0005481C40194203D104495B
:1076C00044600180136010BDA00E0020A40E0020B5
:1076D0000204000070B50400012320CC00212A78A8
:1076E0002000134380222B70520000F046FAAB7842
:1076F000DB07FCD4AB789B07F9D46C6270BD00004B
:107700001F22144B70B51B68590B9C0C9B01114038
:107710005B0F22401F2900D11A391F2A00D1023ADB
:10772000072B00D1043B1F2500688E01048D0A49F8
:107730002A40214031430185018D14000A00AA43EB
:1077400022430285028D1903044B13400B4303852A
:1077500070BDC046246080003FF8FFFFFF8FFFFF31
:1077600002B4714649084900095C49008E4402BCD4
:107770007047C04603B47146490840004900095E9D
:1077800049008E4403BC704703B471464908400069
:107790004900095A49008E4403BC7047002243083F
:1077A0008B4274D303098B425FD3030A8B4244D3C9
:1077B000030B8B4228D3030C8B420DD3FF2209020B
:1077C00012BA030C8B4202D31212090265D0030BCA
:1077D0008B4219D300E0090AC30B8B4201D3CB03C0
:1077E000C01A5241830B8B4201D38B03C01A524102
:1077F000430B8B4201D34B03C01A5241030B8B4204
:1078000001D30B03C01A5241C30A8B4201D3CB02EE
:10781000C01A5241830A8B4201D38B02C01A5241D3
:10782000430A8B4201D34B02C01A5241030A8B42D6
:1078300001D30B02C01A5241CDD2C3098B4201D3EE
:10784000CB01C01A524183098B4201D38B01C01A6C
:10785000524143098B4201D34B01C01A52410309E3
:107860008B4201D30B01C01A5241C3088B4201D392
:10787000CB00C01A524183088B4201D38B00C01A3F
:10788000524143088B4201D34B00C01A5241411A66
:1078900000D20146524110467047FFE701B5002073
:1078A00000F0F0F802BDC0460029F7D076E7704737
:1078B00003460B437FD4002243088B4274D3030951
:1078C0008B425FD3030A8B4244D3030B8B4228D3F2
:1078D000030C8B420DD3FF22090212BA030C8B4218
:1078E00002D31212090265D0030B8B4219D300E0B8
:1078F000090AC30B8B4201D3CB03C01A5241830B3D
:107900008B4201D38B03C01A5241430B8B4201D3EC
:107910004B03C01A5241030B8B4201D30B03C01A15
:107920005241C30A8B4201D3CB02C01A5241830A8F
:107930008B4201D38B02C01A5241430A8B4201D3BE
:107940004B02C01A5241030A8B4201D30B02C01AE8
:107950005241CDD2C3098B4201D3CB01C01A52414F
:1079600083098B4201D38B01C01A524143098B42D8
:1079700001D34B01C01A524103098B4201D30B01C1
:10798000C01A5241C3088B4201D3CB00C01A5241E6
:1079900083088B4201D38B00C01A524143088B42AB
:1079A00001D34B00C01A5241411A00D20146524144
:1079B000104670475DE0CA0F00D04942031000D363
:1079C0004042534000229C4603098B422DD3030AB8
:1079D0008B4212D3FC22890112BA030A8B420CD3C8
:1079E000890192118B4208D3890192118B4204D3F1
:1079F00089013AD0921100E08909C3098B4201D371
:107A0000CB01C01A524183098B4201D38B01C01AAA
:107A1000524143098B4201D34B01C01A5241030921
:107A20008B4201D30B01C01A5241C3088B4201D3D0
:107A3000CB00C01A524183088B4201D38B00C01A7D
:107A40005241D9D243088B4201D34B00C01A524154
:107A5000411A00D20146634652415B10104601D3E1
:107A60004042002B00D54942704763465B1000D36B
:107A7000404201B5002000F005F802BD0029F8D011
:107A800016E770477047C04630B514001A00094B1E
:107A900005001B6885B0D868074B002C01D1074B47
:107AA0001C00019300912B000549029400F00AF894
:107AB00000F058FD84000020EC9C00001A9C00009F
:107AC000F99C00000EB403B5010003AB044804CBDD
:107AD0000068019300F070F902B008BC03B01847C9
